{
  "transactions": [
    {
      "hash": "0x2468e35d7a6986a73b2280e385e970618d08cf0a2ff0318add990fb60bd69942",
      "transactionType": "CALL",
      "contractName": null,
      "contractAddress": "0x779877a7b0d9e8603169ddbd7836e478b4624789",
      "function": "transferAndCall(address,uint256,bytes)",
      "arguments": [
        "0x9DdfaCa8183c41ad55329BdeeD9F6A8d53168B1B",
        "3000000000000000000",
        "0x2de2bae2a5d4fb1335a54134e48902fe041e7ddb235ef9df76aae7ccd237b0ee"
      ],
      "transaction": {
        "from": "0x55f710a5509f4a8a8fe8a41df476e51dad401454",
        "to": "0x779877a7b0d9e8603169ddbd7836e478b4624789",
        "gas": "0x14cbb",
        "value": "0x0",
        "input": "0x4000aea00000000000000000000000009ddfaca8183c41ad55329bdeed9f6a8d53168b1b00000000000000000000000000000000000000000000000029a2241af62c0000000000000000000000000000000000000000000000000000000000000000006000000000000000000000000000000000000000000000000000000000000000202de2bae2a5d4fb1335a54134e48902fe041e7ddb235ef9df76aae7ccd237b0ee",
        "nonce": "0x17",
        "chainId": "0xaa36a7"
      },
      "additionalContracts": [],
      "isFixedGasLimit": false
    }
  ],
  "receipts": [
    {
      "status": "0x1",
      "cumulativeGasUsed": "0x47814a",
      "logs": [
        {
          "address": "0x779877a7b0d9e8603169ddbd7836e478b4624789",
          "topics": [
            "0xddf252ad1be2c89b69c2b068fc378daa952ba7f163c4a11628f55a4df523b3ef",
            "0x00000000000000000000000055f710a5509f4a8a8fe8a41df476e51dad401454",
            "0x0000000000000000000000009ddfaca8183c41ad55329bdeed9f6a8d53168b1b"
          ],
          "data": "0x00000000000000000000000000000000000000000000000029a2241af62c0000",
          "blockHash": "0x16c5ff9a739af14c90c2278ddfce85c86cb0690758a129957ef9d9145df22a1d",
          "blockNumber": "0x9b17f4",
          "blockTimestamp": "0x697e5628",
          "transactionHash": "0x2468e35d7a6986a73b2280e385e970618d08cf0a2ff0318add990fb60bd69942",
          "transactionIndex": "0x37",
          "logIndex": "0x2b",
          "removed": false
        },
        {
          "address": "0x779877a7b0d9e8603169ddbd7836e478b4624789",
          "topics": [
            "0xe19260aff97b920c7df27010903aeb9c8d2be5d310a2c67824cf3f15396e4c16",
            "0x00000000000000000000000055f710a5509f4a8a8fe8a41df476e51dad401454",
            "0x0000000000000000000000009ddfaca8183c41ad55329bdeed9f6a8d53168b1b"
          ],
          "data": "0x00000000000000000000000000000000000000000000000029a2241af62c0000000000000000000000000000000000000000000000000000000000000000004000000000000000000000000000000000000000000000000000000000000000202de2bae2a5d4fb1335a54134e48902fe041e7ddb235ef9df76aae7ccd237b0ee",
          "blockHash": "0x16c5ff9a739af14c90c2278ddfce85c86cb0690758a129957ef9d9145df22a1d",
          "blockNumber": "0x9b17f4",
          "blockTimestamp": "0x697e5628",
          "transactionHash": "0x2468e35d7a6986a73b2280e385e970618d08cf0a2ff0318add990fb60bd69942",
          "transactionIndex": "0x37",
          "logIndex": "0x2c",
          "removed": false
        },
        {
          "address": "0x9ddfaca8183c41ad55329bdeed9f6a8d53168b1b",
          "topics": [
            "0x1ced9348ff549fceab2ac57cd3a9de38edaaab274b725ee82c23e8fc8c4eec7a",
            "0x2de2bae2a5d4fb1335a54134e48902fe041e7ddb235ef9df76aae7ccd237b0ee"
          ],
          "data": "0x0000000000000000000000000000000000000000000000008ac7230489e80000000000000000000000000000000000000000000000000000b469471f80140000",
          "blockHash": "0x16c5ff9a739af14c90c2278ddfce85c86cb0690758a129957ef9d9145df22a1d",
          "blockNumber": "0x9b17f4",
          "blockTimestamp": "0x697e5628",
          "transactionHash": "0x2468e35d7a6986a73b2280e385e970618d08cf0a2ff0318add990fb60bd69942",
          "transactionIndex": "0x37",
          "logIndex": "0x2d",
          "removed": false
        }
      ],
      "logsBloom": "0x00000004000000000000000000000000000000000020800000000000020000000000000000000000000000000000000000000000000000000000000000000000000000000000000000000008000000000000000000000000000020000020000008008000000000000000000000000000000000000000000000000010000040000000100000000000080000010000800000000020000000000000000000000000000000000000000000000000010000000000000000000000000004000000000000000002000080000000000000000000000000000000000100000000000000000010000000000000800000000000000000000400000000000000000000000000",
      "type": "0x2",
      "transactionHash": "0x2468e35d7a6986a73b2280e385e970618d08cf0a2ff0318add990fb60bd69942",
      "transactionIndex": "0x37",
      "blockHash": "0x16c5ff9a739af14c90c2278ddfce85c86cb0690758a129957ef9d9145df22a1d",
      "blockNumber": "0x9b17f4",
      "gasUsed": "0xf0e5",
      "effectiveGasPrice": "0x4447af2f",
      "from": "0x55f710a5509f4a8a8fe8a41df476e51dad401454",
      "to": "0x779877a7b0d9e8603169ddbd7836e478b4624789",
      "contractAddress": null
    }
  ],
  "libraries": [],
  "pending": [],
  "returns": {},
  "timestamp": 1769887273719,
  "chain": 11155111,
  "commit": "92a328c"
}